{
  "_format": "hh-sol-artifact-1",
  "contractName": "RentalContract",
  "sourceName": "contracts/contract.sol",
  "abi": [
    {
      "anonymous": false,
      "inputs": [
        {
          "indexed": true,
          "internalType": "address",
          "name": "userAddress",
          "type": "address"
        },
        {
          "indexed": false,
          "internalType": "string",
          "name": "description",
          "type": "string"
        }
      ],
      "name": "ComplaintFiled",
      "type": "event"
    },
    {
      "anonymous": false,
      "inputs": [
        {
          "indexed": true,
          "internalType": "address",
          "name": "propertyAddress",
          "type": "address"
        },
        {
          "indexed": false,
          "internalType": "uint256",
          "name": "startDate",
          "type": "uint256"
        },
        {
          "indexed": false,
          "internalType": "uint256",
          "name": "endDate",
          "type": "uint256"
        }
      ],
      "name": "LeaseStarted",
      "type": "event"
    },
    {
      "anonymous": false,
      "inputs": [
        {
          "indexed": true,
          "internalType": "address",
          "name": "propertyAddress",
          "type": "address"
        },
        {
          "indexed": true,
          "internalType": "address",
          "name": "earlyTerminationRequestedBy",
          "type": "address"
        }
      ],
      "name": "LeaseTerminated",
      "type": "event"
    },
    {
      "anonymous": false,
      "inputs": [
        {
          "indexed": true,
          "internalType": "address",
          "name": "propertyAddress",
          "type": "address"
        },
        {
          "indexed": false,
          "internalType": "string",
          "name": "propertyType",
          "type": "string"
        },
        {
          "indexed": false,
          "internalType": "address",
          "name": "owner",
          "type": "address"
        }
      ],
      "name": "PropertyAdded",
      "type": "event"
    },
    {
      "anonymous": false,
      "inputs": [
        {
          "indexed": true,
          "internalType": "address",
          "name": "userAddress",
          "type": "address"
        },
        {
          "indexed": false,
          "internalType": "string",
          "name": "userType",
          "type": "string"
        },
        {
          "indexed": false,
          "internalType": "string",
          "name": "name",
          "type": "string"
        },
        {
          "indexed": false,
          "internalType": "string",
          "name": "email",
          "type": "string"
        }
      ],
      "name": "UserRegistered",
      "type": "event"
    },
    {
      "inputs": [
        {
          "internalType": "address",
          "name": "_propertyAddress",
          "type": "address"
        },
        {
          "internalType": "string",
          "name": "_propertyType",
          "type": "string"
        }
      ],
      "name": "addProperty",
      "outputs": [],
      "stateMutability": "nonpayable",
      "type": "function"
    },
    {
      "inputs": [
        {
          "internalType": "uint256",
          "name": "",
          "type": "uint256"
        }
      ],
      "name": "complaints",
      "outputs": [
        {
          "internalType": "address",
          "name": "userAddress",
          "type": "address"
        },
        {
          "internalType": "string",
          "name": "description",
          "type": "string"
        }
      ],
      "stateMutability": "view",
      "type": "function"
    },
    {
      "inputs": [
        {
          "internalType": "string",
          "name": "_description",
          "type": "string"
        }
      ],
      "name": "fileComplaint",
      "outputs": [],
      "stateMutability": "nonpayable",
      "type": "function"
    },
    {
      "inputs": [
        {
          "internalType": "address",
          "name": "",
          "type": "address"
        }
      ],
      "name": "leases",
      "outputs": [
        {
          "internalType": "uint256",
          "name": "startDate",
          "type": "uint256"
        },
        {
          "internalType": "uint256",
          "name": "endDate",
          "type": "uint256"
        },
        {
          "internalType": "bool",
          "name": "isRented",
          "type": "bool"
        },
        {
          "internalType": "bool",
          "name": "isTerminated",
          "type": "bool"
        },
        {
          "internalType": "address",
          "name": "earlyTerminationRequestedBy",
          "type": "address"
        }
      ],
      "stateMutability": "view",
      "type": "function"
    },
    {
      "inputs": [
        {
          "internalType": "address",
          "name": "",
          "type": "address"
        }
      ],
      "name": "properties",
      "outputs": [
        {
          "internalType": "address",
          "name": "owner",
          "type": "address"
        },
        {
          "internalType": "string",
          "name": "propertyType",
          "type": "string"
        },
        {
          "internalType": "address",
          "name": "lease",
          "type": "address"
        }
      ],
      "stateMutability": "view",
      "type": "function"
    },
    {
      "inputs": [
        {
          "internalType": "string",
          "name": "_userType",
          "type": "string"
        },
        {
          "internalType": "string",
          "name": "_name",
          "type": "string"
        },
        {
          "internalType": "string",
          "name": "_email",
          "type": "string"
        }
      ],
      "name": "registerUser",
      "outputs": [],
      "stateMutability": "nonpayable",
      "type": "function"
    },
    {
      "inputs": [
        {
          "internalType": "address",
          "name": "_propertyAddress",
          "type": "address"
        }
      ],
      "name": "requestEarlyTermination",
      "outputs": [],
      "stateMutability": "nonpayable",
      "type": "function"
    },
    {
      "inputs": [
        {
          "internalType": "address",
          "name": "_propertyAddress",
          "type": "address"
        },
        {
          "internalType": "address",
          "name": "_tenant",
          "type": "address"
        },
        {
          "internalType": "uint256",
          "name": "_startDate",
          "type": "uint256"
        },
        {
          "internalType": "uint256",
          "name": "_endDate",
          "type": "uint256"
        }
      ],
      "name": "startLease",
      "outputs": [],
      "stateMutability": "nonpayable",
      "type": "function"
    },
    {
      "inputs": [
        {
          "internalType": "address",
          "name": "_propertyAddress",
          "type": "address"
        }
      ],
      "name": "terminateLease",
      "outputs": [],
      "stateMutability": "nonpayable",
      "type": "function"
    },
    {
      "inputs": [
        {
          "internalType": "address",
          "name": "",
          "type": "address"
        }
      ],
      "name": "users",
      "outputs": [
        {
          "internalType": "string",
          "name": "userType",
          "type": "string"
        },
        {
          "internalType": "string",
          "name": "name",
          "type": "string"
        },
        {
          "internalType": "string",
          "name": "email",
          "type": "string"
        }
      ],
      "stateMutability": "view",
      "type": "function"
    }
  ],
  "bytecode": "0x608060405234801561001057600080fd5b50611fb5806100206000396000f3fe608060405234801561001057600080fd5b506004361061009e5760003560e01c80639c2e8b6c116100665780639c2e8b6c1461015a578063a87430ba14610176578063d637dcfa146101a8578063d72d31ea146101c4578063d74d1f43146101e05761009e565b806325ec77d7146100a357806349ebcd53146100d55780637e69e912146100f15780638b80a1fe1461012257806398f013ea1461013e575b600080fd5b6100bd60048036038101906100b891906112e0565b610214565b6040516100cc939291906113ac565b60405180910390f35b6100ef60048036038101906100ea919061151f565b610306565b005b61010b6004803603810190610106919061159e565b61040c565b6040516101199291906115cb565b60405180910390f35b61013c600480360381019061013791906115fb565b6104e8565b005b610158600480360381019061015391906112e0565b610808565b005b610174600480360381019061016f91906112e0565b61093b565b005b610190600480360381019061018b91906112e0565b610ca4565b60405161019f93929190611662565b60405180910390f35b6101c260048036038101906101bd91906116ae565b610e66565b005b6101de60048036038101906101d99190611755565b610feb565b005b6101fa60048036038101906101f591906112e0565b6111fe565b60405161020b9594939291906117db565b60405180910390f35b60016020528060005260406000206000915090508060000160009054906101000a900473ffffffffffffffffffffffffffffffffffffffff169080600101805461025d9061185d565b80601f01602080910402602001604051908101604052809291908181526020018280546102899061185d565b80156102d65780601f106102ab576101008083540402835291602001916102d6565b820191906000526020600020905b8154815290600101906020018083116102b957829003601f168201915b5050505050908060020160009054906101000a900473ffffffffffffffffffffffffffffffffffffffff16905083565b600360405180604001604052803373ffffffffffffffffffffffffffffffffffffffff16815260200183815250908060018154018082558091505060019003906000526020600020906002020160009091909190915060008201518160000160006101000a81548173ffffffffffffffffffffffffffffffffffffffff021916908373ffffffffffffffffffffffffffffffffffffffff16021790555060208201518160010190816103b89190611a3a565b5050503373ffffffffffffffffffffffffffffffffffffffff167fb81c56c7bd29f71bca6c82bfa0e4dd1c6e3dbd1056b5ce8a69f17d3b2756674e826040516104019190611b0c565b60405180910390a250565b6003818154811061041c57600080fd5b90600052602060002090600202016000915090508060000160009054906101000a900473ffffffffffffffffffffffffffffffffffffffff16908060010180546104659061185d565b80601f01602080910402602001604051908101604052809291908181526020018280546104919061185d565b80156104de5780601f106104b3576101008083540402835291602001916104de565b820191906000526020600020905b8154815290600101906020018083116104c157829003601f168201915b5050505050905082565b6000600160008673ffffffffffffffffffffffffffffffffffffffff1673ffffffffffffffffffffffffffffffffffffffff16815260200190815260200160002090503373ffffffffffffffffffffffffffffffffffffffff168160000160009054906101000a900473ffffffffffffffffffffffffffffffffffffffff1673ffffffffffffffffffffffffffffffffffffffff16146105bd576040517f08c379a00000000000000000000000000000000000000000000000000000000081526004016105b490611ba0565b60405180910390fd5b600260008673ffffffffffffffffffffffffffffffffffffffff1673ffffffffffffffffffffffffffffffffffffffff16815260200190815260200160002060020160009054906101000a900460ff161561064d576040517f08c379a000000000000000000000000000000000000000000000000000000000815260040161064490611c0c565b60405180910390fd5b6040518060a00160405280848152602001838152602001600115158152602001600015158152602001600073ffffffffffffffffffffffffffffffffffffffff16815250600260008773ffffffffffffffffffffffffffffffffffffffff1673ffffffffffffffffffffffffffffffffffffffff168152602001908152602001600020600082015181600001556020820151816001015560408201518160020160006101000a81548160ff02191690831515021790555060608201518160020160016101000a81548160ff02191690831515021790555060808201518160020160026101000a81548173ffffffffffffffffffffffffffffffffffffffff021916908373ffffffffffffffffffffffffffffffffffffffff160217905550905050838160020160006101000a81548173ffffffffffffffffffffffffffffffffffffffff021916908373ffffffffffffffffffffffffffffffffffffffff1602179055508473ffffffffffffffffffffffffffffffffffffffff167f527a84c2af51fe57893ebb32484931647a0729a328883ee5919067e97ecfd61484846040516107f9929190611c2c565b60405180910390a25050505050565b6000600260008373ffffffffffffffffffffffffffffffffffffffff1673ffffffffffffffffffffffffffffffffffffffff16815260200190815260200160002090508060020160009054906101000a900460ff1661089c576040517f08c379a000000000000000000000000000000000000000000000000000000000815260040161089390611ca1565b60405180910390fd5b600015158160020160019054906101000a900460ff161515146108f4576040517f08c379a00000000000000000000000000000000000000000000000000000000081526004016108eb90611d0d565b60405180910390fd5b338160020160026101000a81548173ffffffffffffffffffffffffffffffffffffffff021916908373ffffffffffffffffffffffffffffffffffffffff1602179055505050565b6000600160008373ffffffffffffffffffffffffffffffffffffffff1673ffffffffffffffffffffffffffffffffffffffff16815260200190815260200160002090506000600260008473ffffffffffffffffffffffffffffffffffffffff1673ffffffffffffffffffffffffffffffffffffffff16815260200190815260200160002090503373ffffffffffffffffffffffffffffffffffffffff168260000160009054906101000a900473ffffffffffffffffffffffffffffffffffffffff1673ffffffffffffffffffffffffffffffffffffffff1614610a53576040517f08c379a0000000000000000000000000000000000000000000000000000000008152600401610a4a90611d9f565b60405180910390fd5b8060020160009054906101000a900460ff16610aa4576040517f08c379a0000000000000000000000000000000000000000000000000000000008152600401610a9b90611ca1565b60405180910390fd5b600015158160020160019054906101000a900460ff16151514610afc576040517f08c379a0000000000000000000000000000000000000000000000000000000008152600401610af390611d0d565b60405180910390fd5b600073ffffffffffffffffffffffffffffffffffffffff168160020160029054906101000a900473ffffffffffffffffffffffffffffffffffffffff1673ffffffffffffffffffffffffffffffffffffffff1614610be7573373ffffffffffffffffffffffffffffffffffffffff168160020160029054906101000a900473ffffffffffffffffffffffffffffffffffffffff1673ffffffffffffffffffffffffffffffffffffffff1614610be6576040517f08c379a0000000000000000000000000000000000000000000000000000000008152600401610bdd90611e57565b60405180910390fd5b5b60008160020160006101000a81548160ff02191690831515021790555060018160020160016101000a81548160ff0219169083151502179055508060020160029054906101000a900473ffffffffffffffffffffffffffffffffffffffff1673ffffffffffffffffffffffffffffffffffffffff168373ffffffffffffffffffffffffffffffffffffffff167f07b520f2e1a3f2e686818158dab32fe19d7a4976d077d20affc019b17997406c60405160405180910390a3505050565b6000602052806000526040600020600091509050806000018054610cc79061185d565b80601f0160208091040260200160405190810160405280929190818152602001828054610cf39061185d565b8015610d405780601f10610d1557610100808354040283529160200191610d40565b820191906000526020600020905b815481529060010190602001808311610d2357829003601f168201915b505050505090806001018054610d559061185d565b80601f0160208091040260200160405190810160405280929190818152602001828054610d819061185d565b8015610dce5780601f10610da357610100808354040283529160200191610dce565b820191906000526020600020905b815481529060010190602001808311610db157829003601f168201915b505050505090806002018054610de39061185d565b80601f0160208091040260200160405190810160405280929190818152602001828054610e0f9061185d565b8015610e5c5780601f10610e3157610100808354040283529160200191610e5c565b820191906000526020600020905b815481529060010190602001808311610e3f57829003601f168201915b5050505050905083565b60008060003373ffffffffffffffffffffffffffffffffffffffff1673ffffffffffffffffffffffffffffffffffffffff1681526020019081526020016000206000018054610eb49061185d565b905014610ef6576040517f08c379a0000000000000000000000000000000000000000000000000000000008152600401610eed90611ec3565b60405180910390fd5b6040518060600160405280848152602001838152602001828152506000803373ffffffffffffffffffffffffffffffffffffffff1673ffffffffffffffffffffffffffffffffffffffff1681526020019081526020016000206000820151816000019081610f649190611a3a565b506020820151816001019081610f7a9190611a3a565b506040820151816002019081610f909190611a3a565b509050503373ffffffffffffffffffffffffffffffffffffffff167f509c70f523067009f7db7f46db6956d7af8b679323680dc3821a8bad001ac1e1848484604051610fde93929190611662565b60405180910390a2505050565b6000600160008473ffffffffffffffffffffffffffffffffffffffff1673ffffffffffffffffffffffffffffffffffffffff168152602001908152602001600020600101805461103a9061185d565b90501461107c576040517f08c379a000000000000000000000000000000000000000000000000000000000815260040161107390611f2f565b60405180910390fd5b60405180606001604052803373ffffffffffffffffffffffffffffffffffffffff168152602001828152602001600073ffffffffffffffffffffffffffffffffffffffff16815250600160008473ffffffffffffffffffffffffffffffffffffffff1673ffffffffffffffffffffffffffffffffffffffff16815260200190815260200160002060008201518160000160006101000a81548173ffffffffffffffffffffffffffffffffffffffff021916908373ffffffffffffffffffffffffffffffffffffffff160217905550602082015181600101908161115f9190611a3a565b5060408201518160020160006101000a81548173ffffffffffffffffffffffffffffffffffffffff021916908373ffffffffffffffffffffffffffffffffffffffff1602179055509050508173ffffffffffffffffffffffffffffffffffffffff167fc14faf3d7d9573a8171bd0e9ee303c428f28c33709aabb0fa4bd3390915f2b7a82336040516111f2929190611f4f565b60405180910390a25050565b60026020528060005260406000206000915090508060000154908060010154908060020160009054906101000a900460ff16908060020160019054906101000a900460ff16908060020160029054906101000a900473ffffffffffffffffffffffffffffffffffffffff16905085565b6000604051905090565b600080fd5b600080fd5b600073ffffffffffffffffffffffffffffffffffffffff82169050919050565b60006112ad82611282565b9050919050565b6112bd816112a2565b81146112c857600080fd5b50565b6000813590506112da816112b4565b92915050565b6000602082840312156112f6576112f5611278565b5b6000611304848285016112cb565b91505092915050565b611316816112a2565b82525050565b600081519050919050565b600082825260208201905092915050565b60005b8381101561135657808201518184015260208101905061133b565b60008484015250505050565b6000601f19601f8301169050919050565b600061137e8261131c565b6113888185611327565b9350611398818560208601611338565b6113a181611362565b840191505092915050565b60006060820190506113c1600083018661130d565b81810360208301526113d38185611373565b90506113e2604083018461130d565b949350505050565b600080fd5b600080fd5b7f4e487b7100000000000000000000000000000000000000000000000000000000600052604160045260246000fd5b61142c82611362565b810181811067ffffffffffffffff8211171561144b5761144a6113f4565b5b80604052505050565b600061145e61126e565b905061146a8282611423565b919050565b600067ffffffffffffffff82111561148a576114896113f4565b5b61149382611362565b9050602081019050919050565b82818337600083830152505050565b60006114c26114bd8461146f565b611454565b9050828152602081018484840111156114de576114dd6113ef565b5b6114e98482856114a0565b509392505050565b600082601f830112611506576115056113ea565b5b81356115168482602086016114af565b91505092915050565b60006020828403121561153557611534611278565b5b600082013567ffffffffffffffff8111156115535761155261127d565b5b61155f848285016114f1565b91505092915050565b6000819050919050565b61157b81611568565b811461158657600080fd5b50565b60008135905061159881611572565b92915050565b6000602082840312156115b4576115b3611278565b5b60006115c284828501611589565b91505092915050565b60006040820190506115e0600083018561130d565b81810360208301526115f28184611373565b90509392505050565b6000806000806080858703121561161557611614611278565b5b6000611623878288016112cb565b9450506020611634878288016112cb565b935050604061164587828801611589565b925050606061165687828801611589565b91505092959194509250565b6000606082019050818103600083015261167c8186611373565b905081810360208301526116908185611373565b905081810360408301526116a48184611373565b9050949350505050565b6000806000606084860312156116c7576116c6611278565b5b600084013567ffffffffffffffff8111156116e5576116e461127d565b5b6116f1868287016114f1565b935050602084013567ffffffffffffffff8111156117125761171161127d565b5b61171e868287016114f1565b925050604084013567ffffffffffffffff81111561173f5761173e61127d565b5b61174b868287016114f1565b9150509250925092565b6000806040838503121561176c5761176b611278565b5b600061177a858286016112cb565b925050602083013567ffffffffffffffff81111561179b5761179a61127d565b5b6117a7858286016114f1565b9150509250929050565b6117ba81611568565b82525050565b60008115159050919050565b6117d5816117c0565b82525050565b600060a0820190506117f060008301886117b1565b6117fd60208301876117b1565b61180a60408301866117cc565b61181760608301856117cc565b611824608083018461130d565b9695505050505050565b7f4e487b7100000000000000000000000000000000000000000000000000000000600052602260045260246000fd5b6000600282049050600182168061187557607f821691505b6020821081036118885761188761182e565b5b50919050565b60008190508160005260206000209050919050565b60006020601f8301049050919050565b600082821b905092915050565b6000600883026118f07fffffffffffffffffffffffffffffffffffffffffffffffffffffffffffffffff826118b3565b6118fa86836118b3565b95508019841693508086168417925050509392505050565b6000819050919050565b600061193761193261192d84611568565b611912565b611568565b9050919050565b6000819050919050565b6119518361191c565b61196561195d8261193e565b8484546118c0565b825550505050565b600090565b61197a61196d565b611985818484611948565b505050565b5b818110156119a95761199e600082611972565b60018101905061198b565b5050565b601f8211156119ee576119bf8161188e565b6119c8846118a3565b810160208510156119d7578190505b6119eb6119e3856118a3565b83018261198a565b50505b505050565b600082821c905092915050565b6000611a11600019846008026119f3565b1980831691505092915050565b6000611a2a8383611a00565b9150826002028217905092915050565b611a438261131c565b67ffffffffffffffff811115611a5c57611a5b6113f4565b5b611a66825461185d565b611a718282856119ad565b600060209050601f831160018114611aa45760008415611a92578287015190505b611a9c8582611a1e565b865550611b04565b601f198416611ab28661188e565b60005b82811015611ada57848901518255600182019150602085019450602081019050611ab5565b86831015611af75784890151611af3601f891682611a00565b8355505b6001600288020188555050505b505050505050565b60006020820190508181036000830152611b268184611373565b905092915050565b7f4f6e6c792070726f7065727479206f776e65722063616e20737461727420612060008201527f6c65617365000000000000000000000000000000000000000000000000000000602082015250565b6000611b8a602583611327565b9150611b9582611b2e565b604082019050919050565b60006020820190508181036000830152611bb981611b7d565b9050919050565b7f50726f706572747920697320616c72656164792072656e746564000000000000600082015250565b6000611bf6601a83611327565b9150611c0182611bc0565b602082019050919050565b60006020820190508181036000830152611c2581611be9565b9050919050565b6000604082019050611c4160008301856117b1565b611c4e60208301846117b1565b9392505050565b7f50726f7065727479206973206e6f742072656e74656400000000000000000000600082015250565b6000611c8b601683611327565b9150611c9682611c55565b602082019050919050565b60006020820190508181036000830152611cba81611c7e565b9050919050565b7f4c6561736520697320616c7265616479207465726d696e617465640000000000600082015250565b6000611cf7601b83611327565b9150611d0282611cc1565b602082019050919050565b60006020820190508181036000830152611d2681611cea565b9050919050565b7f4f6e6c792070726f7065727479206f776e65722063616e207465726d696e617460008201527f6520746865206c65617365000000000000000000000000000000000000000000602082015250565b6000611d89602b83611327565b9150611d9482611d2d565b604082019050919050565b60006020820190508181036000830152611db881611d7c565b9050919050565b7f4f6e6c792074686520757365722077686f20726571756573746564206561726c60008201527f79207465726d696e6174696f6e2063616e207465726d696e617465207468652060208201527f6c65617365000000000000000000000000000000000000000000000000000000604082015250565b6000611e41604583611327565b9150611e4c82611dbf565b606082019050919050565b60006020820190508181036000830152611e7081611e34565b9050919050565b7f5573657220616c72656164792072656769737465726564000000000000000000600082015250565b6000611ead601783611327565b9150611eb882611e77565b602082019050919050565b60006020820190508181036000830152611edc81611ea0565b9050919050565b7f50726f706572747920616c726561647920657869737473000000000000000000600082015250565b6000611f19601783611327565b9150611f2482611ee3565b602082019050919050565b60006020820190508181036000830152611f4881611f0c565b9050919050565b60006040820190508181036000830152611f698185611373565b9050611f78602083018461130d565b939250505056fea2646970667358221220a63e0c052e9d643bf72aa764b1c1ee178a2e69bfc0df7e814ae30aecc1524a1464736f6c63430008130033",
  "linkReferences": {},
  "deployedLinkReferences": {}
}